{
  "_format": "hh-sol-artifact-1",
  "contractName": "AnimalNFT",
  "sourceName": "contracts/NFT.sol",
  "abi": [
    {
      "inputs": [],
      "stateMutability": "nonpayable",
      "type": "constructor"
    },
    {
      "anonymous": false,
      "inputs": [
        {
          "indexed": true,
          "internalType": "address",
          "name": "owner",
          "type": "address"
        },
        {
          "indexed": true,
          "internalType": "address",
          "name": "approved",
          "type": "address"
        },
        {
          "indexed": true,
          "internalType": "uint256",
          "name": "tokenId",
          "type": "uint256"
        }
      ],
      "name": "Approval",
      "type": "event"
    },
    {
      "anonymous": false,
      "inputs": [
        {
          "indexed": true,
          "internalType": "address",
          "name": "owner",
          "type": "address"
        },
        {
          "indexed": true,
          "internalType": "address",
          "name": "operator",
          "type": "address"
        },
        {
          "indexed": false,
          "internalType": "bool",
          "name": "approved",
          "type": "bool"
        }
      ],
      "name": "ApprovalForAll",
      "type": "event"
    },
    {
      "anonymous": false,
      "inputs": [
        {
          "indexed": true,
          "internalType": "address",
          "name": "from",
          "type": "address"
        },
        {
          "indexed": true,
          "internalType": "address",
          "name": "to",
          "type": "address"
        },
        {
          "indexed": true,
          "internalType": "uint256",
          "name": "tokenId",
          "type": "uint256"
        }
      ],
      "name": "Transfer",
      "type": "event"
    },
    {
      "inputs": [],
      "name": "admin",
      "outputs": [
        {
          "internalType": "address",
          "name": "",
          "type": "address"
        }
      ],
      "stateMutability": "view",
      "type": "function"
    },
    {
      "inputs": [
        {
          "internalType": "address",
          "name": "to",
          "type": "address"
        },
        {
          "internalType": "uint256",
          "name": "tokenId",
          "type": "uint256"
        }
      ],
      "name": "approve",
      "outputs": [],
      "stateMutability": "nonpayable",
      "type": "function"
    },
    {
      "inputs": [
        {
          "internalType": "address",
          "name": "owner",
          "type": "address"
        }
      ],
      "name": "balanceOf",
      "outputs": [
        {
          "internalType": "uint256",
          "name": "",
          "type": "uint256"
        }
      ],
      "stateMutability": "view",
      "type": "function"
    },
    {
      "inputs": [
        {
          "internalType": "uint256",
          "name": "_tokenId",
          "type": "uint256"
        }
      ],
      "name": "buy",
      "outputs": [],
      "stateMutability": "nonpayable",
      "type": "function"
    },
    {
      "inputs": [
        {
          "internalType": "uint256",
          "name": "tokenId",
          "type": "uint256"
        }
      ],
      "name": "getApproved",
      "outputs": [
        {
          "internalType": "address",
          "name": "",
          "type": "address"
        }
      ],
      "stateMutability": "view",
      "type": "function"
    },
    {
      "inputs": [
        {
          "internalType": "address",
          "name": "owner",
          "type": "address"
        },
        {
          "internalType": "address",
          "name": "operator",
          "type": "address"
        }
      ],
      "name": "isApprovedForAll",
      "outputs": [
        {
          "internalType": "bool",
          "name": "",
          "type": "bool"
        }
      ],
      "stateMutability": "view",
      "type": "function"
    },
    {
      "inputs": [
        {
          "internalType": "address",
          "name": "to",
          "type": "address"
        }
      ],
      "name": "mint",
      "outputs": [],
      "stateMutability": "nonpayable",
      "type": "function"
    },
    {
      "inputs": [],
      "name": "name",
      "outputs": [
        {
          "internalType": "string",
          "name": "",
          "type": "string"
        }
      ],
      "stateMutability": "view",
      "type": "function"
    },
    {
      "inputs": [],
      "name": "nextTokenId",
      "outputs": [
        {
          "internalType": "uint256",
          "name": "",
          "type": "uint256"
        }
      ],
      "stateMutability": "view",
      "type": "function"
    },
    {
      "inputs": [
        {
          "internalType": "uint256",
          "name": "tokenId",
          "type": "uint256"
        }
      ],
      "name": "ownerOf",
      "outputs": [
        {
          "internalType": "address",
          "name": "",
          "type": "address"
        }
      ],
      "stateMutability": "view",
      "type": "function"
    },
    {
      "inputs": [
        {
          "internalType": "address",
          "name": "from",
          "type": "address"
        },
        {
          "internalType": "address",
          "name": "to",
          "type": "address"
        },
        {
          "internalType": "uint256",
          "name": "tokenId",
          "type": "uint256"
        }
      ],
      "name": "safeTransferFrom",
      "outputs": [],
      "stateMutability": "nonpayable",
      "type": "function"
    },
    {
      "inputs": [
        {
          "internalType": "address",
          "name": "from",
          "type": "address"
        },
        {
          "internalType": "address",
          "name": "to",
          "type": "address"
        },
        {
          "internalType": "uint256",
          "name": "tokenId",
          "type": "uint256"
        },
        {
          "internalType": "bytes",
          "name": "_data",
          "type": "bytes"
        }
      ],
      "name": "safeTransferFrom",
      "outputs": [],
      "stateMutability": "nonpayable",
      "type": "function"
    },
    {
      "inputs": [
        {
          "internalType": "address",
          "name": "operator",
          "type": "address"
        },
        {
          "internalType": "bool",
          "name": "approved",
          "type": "bool"
        }
      ],
      "name": "setApprovalForAll",
      "outputs": [],
      "stateMutability": "nonpayable",
      "type": "function"
    },
    {
      "inputs": [
        {
          "internalType": "bytes4",
          "name": "interfaceId",
          "type": "bytes4"
        }
      ],
      "name": "supportsInterface",
      "outputs": [
        {
          "internalType": "bool",
          "name": "",
          "type": "bool"
        }
      ],
      "stateMutability": "view",
      "type": "function"
    },
    {
      "inputs": [],
      "name": "symbol",
      "outputs": [
        {
          "internalType": "string",
          "name": "",
          "type": "string"
        }
      ],
      "stateMutability": "view",
      "type": "function"
    },
    {
      "inputs": [
        {
          "internalType": "uint256",
          "name": "tokenId",
          "type": "uint256"
        }
      ],
      "name": "tokenURI",
      "outputs": [
        {
          "internalType": "string",
          "name": "",
          "type": "string"
        }
      ],
      "stateMutability": "view",
      "type": "function"
    },
    {
      "inputs": [
        {
          "internalType": "address",
          "name": "from",
          "type": "address"
        },
        {
          "internalType": "address",
          "name": "to",
          "type": "address"
        },
        {
          "internalType": "uint256",
          "name": "tokenId",
          "type": "uint256"
        }
      ],
      "name": "transferFrom",
      "outputs": [],
      "stateMutability": "nonpayable",
      "type": "function"
    }
  ],
  "bytecode": "0x60806040523480156200001157600080fd5b506040518060400160405280600981526020017f416e696d616c4e465400000000000000000000000000000000000000000000008152506040518060400160405280600481526020017f414e465400000000000000000000000000000000000000000000000000000000815250816000908051906020019062000096929190620000f9565b508060019080519060200190620000af929190620000f9565b50505033600760006101000a81548173ffffffffffffffffffffffffffffffffffffffff021916908373ffffffffffffffffffffffffffffffffffffffff1602179055506200020e565b8280546200010790620001a9565b90600052602060002090601f0160209004810192826200012b576000855562000177565b82601f106200014657805160ff191683800117855562000177565b8280016001018555821562000177579182015b828111156200017657825182559160200191906001019062000159565b5b5090506200018691906200018a565b5090565b5b80821115620001a55760008160009055506001016200018b565b5090565b60006002820490506001821680620001c257607f821691505b60208210811415620001d957620001d8620001df565b5b50919050565b7f4e487b7100000000000000000000000000000000000000000000000000000000600052602260045260246000fd5b612b29806200021e6000396000f3fe608060405234801561001057600080fd5b506004361061010b5760003560e01c806370a08231116100a2578063b88d4fde11610071578063b88d4fde146102b6578063c87b56dd146102d2578063d96a094a14610302578063e985e9c51461031e578063f851a4401461034e5761010b565b806370a082311461022e57806375794a3c1461025e57806395d89b411461027c578063a22cb4651461029a5761010b565b806323b872dd116100de57806323b872dd146101aa57806342842e0e146101c65780636352211e146101e25780636a627842146102125761010b565b806301ffc9a71461011057806306fdde0314610140578063081812fc1461015e578063095ea7b31461018e575b600080fd5b61012a60048036038101906101259190611b4b565b61036c565b6040516101379190611f80565b60405180910390f35b61014861044e565b6040516101559190611f9b565b60405180910390f35b61017860048036038101906101739190611ba5565b6104e0565b6040516101859190611f19565b60405180910390f35b6101a860048036038101906101a39190611b0b565b610565565b005b6101c460048036038101906101bf91906119f5565b61067d565b005b6101e060048036038101906101db91906119f5565b6106dd565b005b6101fc60048036038101906101f79190611ba5565b6106fd565b6040516102099190611f19565b60405180910390f35b61022c60048036038101906102279190611988565b6107af565b005b61024860048036038101906102439190611988565b610866565b60405161025591906121dd565b60405180910390f35b61026661091e565b60405161027391906121dd565b60405180910390f35b610284610924565b6040516102919190611f9b565b60405180910390f35b6102b460048036038101906102af9190611acb565b6109b6565b005b6102d060048036038101906102cb9190611a48565b610b37565b005b6102ec60048036038101906102e79190611ba5565b610b99565b6040516102f99190611f9b565b60405180910390f35b61031c60048036038101906103179190611ba5565b610c40565b005b610338600480360381019061033391906119b5565b610d51565b6040516103459190611f80565b60405180910390f35b610356610de5565b6040516103639190611f19565b60405180910390f35b60007f80ac58cd000000000000000000000000000000000000000000000000000000007bffffffffffffffffffffffffffffffffffffffffffffffffffffffff1916827bffffffffffffffffffffffffffffffffffffffffffffffffffffffff1916148061043757507f5b5e139f000000000000000000000000000000000000000000000000000000007bffffffffffffffffffffffffffffffffffffffffffffffffffffffff1916827bffffffffffffffffffffffffffffffffffffffffffffffffffffffff1916145b80610447575061044682610e0b565b5b9050919050565b60606000805461045d90612402565b80601f016020809104026020016040519081016040528092919081815260200182805461048990612402565b80156104d65780601f106104ab576101008083540402835291602001916104d6565b820191906000526020600020905b8154815290600101906020018083116104b957829003601f168201915b5050505050905090565b60006104eb82610e75565b61052a576040517f08c379a00000000000000000000000000000000000000000000000000000000081526004016105219061211d565b60405180910390fd5b6004600083815260200190815260200160002060009054906101000a900473ffffffffffffffffffffffffffffffffffffffff169050919050565b6000610570826106fd565b90508073ffffffffffffffffffffffffffffffffffffffff168373ffffffffffffffffffffffffffffffffffffffff1614156105e1576040517f08c379a00000000000000000000000000000000000000000000000000000000081526004016105d89061217d565b60405180910390fd5b8073ffffffffffffffffffffffffffffffffffffffff16610600610ee1565b73ffffffffffffffffffffffffffffffffffffffff16148061062f575061062e81610629610ee1565b610d51565b5b61066e576040517f08c379a00000000000000000000000000000000000000000000000000000000081526004016106659061209d565b60405180910390fd5b6106788383610ee9565b505050565b61068e610688610ee1565b82610fa2565b6106cd576040517f08c379a00000000000000000000000000000000000000000000000000000000081526004016106c49061219d565b60405180910390fd5b6106d8838383611080565b505050565b6106f883838360405180602001604052806000815250610b37565b505050565b6000806002600084815260200190815260200160002060009054906101000a900473ffffffffffffffffffffffffffffffffffffffff169050600073ffffffffffffffffffffffffffffffffffffffff168173ffffffffffffffffffffffffffffffffffffffff1614156107a6576040517f08c379a000000000000000000000000000000000000000000000000000000000815260040161079d906120dd565b60405180910390fd5b80915050919050565b600760009054906101000a900473ffffffffffffffffffffffffffffffffffffffff1673ffffffffffffffffffffffffffffffffffffffff163373ffffffffffffffffffffffffffffffffffffffff161461083f576040517f08c379a00000000000000000000000000000000000000000000000000000000081526004016108369061205d565b60405180910390fd5b61084b816006546112dc565b6006600081548092919061085e90612465565b919050555050565b60008073ffffffffffffffffffffffffffffffffffffffff168273ffffffffffffffffffffffffffffffffffffffff1614156108d7576040517f08c379a00000000000000000000000000000000000000000000000000000000081526004016108ce906120bd565b60405180910390fd5b600360008373ffffffffffffffffffffffffffffffffffffffff1673ffffffffffffffffffffffffffffffffffffffff168152602001908152602001600020549050919050565b60065481565b60606001805461093390612402565b80601f016020809104026020016040519081016040528092919081815260200182805461095f90612402565b80156109ac5780601f10610981576101008083540402835291602001916109ac565b820191906000526020600020905b81548152906001019060200180831161098f57829003601f168201915b5050505050905090565b6109be610ee1565b73ffffffffffffffffffffffffffffffffffffffff168273ffffffffffffffffffffffffffffffffffffffff161415610a2c576040517f08c379a0000000000000000000000000000000000000000000000000000000008152600401610a239061203d565b60405180910390fd5b8060056000610a39610ee1565b73ffffffffffffffffffffffffffffffffffffffff1673ffffffffffffffffffffffffffffffffffffffff16815260200190815260200160002060008473ffffffffffffffffffffffffffffffffffffffff1673ffffffffffffffffffffffffffffffffffffffff16815260200190815260200160002060006101000a81548160ff0219169083151502179055508173ffffffffffffffffffffffffffffffffffffffff16610ae6610ee1565b73ffffffffffffffffffffffffffffffffffffffff167f17307eab39ab6107e8899845ad3d59bd9653f200f220920489ca2b5937696c3183604051610b2b9190611f80565b60405180910390a35050565b610b48610b42610ee1565b83610fa2565b610b87576040517f08c379a0000000000000000000000000000000000000000000000000000000008152600401610b7e9061219d565b60405180910390fd5b610b93848484846112fa565b50505050565b6060610ba482610e75565b610be3576040517f08c379a0000000000000000000000000000000000000000000000000000000008152600401610bda9061215d565b60405180910390fd5b6000610bed611356565b90506000815111610c0d5760405180602001604052806000815250610c38565b80610c1784611376565b604051602001610c28929190611ef5565b6040516020818303038152906040525b915050919050565b6000610c4b826106fd565b90508073ffffffffffffffffffffffffffffffffffffffff163373ffffffffffffffffffffffffffffffffffffffff161415610cbc576040517f08c379a0000000000000000000000000000000000000000000000000000000008152600401610cb3906121bd565b60405180910390fd5b3073ffffffffffffffffffffffffffffffffffffffff16610cdc836104e0565b73ffffffffffffffffffffffffffffffffffffffff1614610d32576040517f08c379a0000000000000000000000000000000000000000000000000000000008152600401610d2990611ffd565b60405180910390fd5b610d4d813384604051806020016040528060008152506112fa565b5050565b6000600560008473ffffffffffffffffffffffffffffffffffffffff1673ffffffffffffffffffffffffffffffffffffffff16815260200190815260200160002060008373ffffffffffffffffffffffffffffffffffffffff1673ffffffffffffffffffffffffffffffffffffffff16815260200190815260200160002060009054906101000a900460ff16905092915050565b600760009054906101000a900473ffffffffffffffffffffffffffffffffffffffff1681565b60007f01ffc9a7000000000000000000000000000000000000000000000000000000007bffffffffffffffffffffffffffffffffffffffffffffffffffffffff1916827bffffffffffffffffffffffffffffffffffffffffffffffffffffffff1916149050919050565b60008073ffffffffffffffffffffffffffffffffffffffff166002600084815260200190815260200160002060009054906101000a900473ffffffffffffffffffffffffffffffffffffffff1673ffffffffffffffffffffffffffffffffffffffff1614159050919050565b600033905090565b816004600083815260200190815260200160002060006101000a81548173ffffffffffffffffffffffffffffffffffffffff021916908373ffffffffffffffffffffffffffffffffffffffff160217905550808273ffffffffffffffffffffffffffffffffffffffff16610f5c836106fd565b73ffffffffffffffffffffffffffffffffffffffff167f8c5be1e5ebec7d5bd14f71427d1e84f3dd0314c0f7b2291e5b200ac8c7c3b92560405160405180910390a45050565b6000610fad82610e75565b610fec576040517f08c379a0000000000000000000000000000000000000000000000000000000008152600401610fe39061207d565b60405180910390fd5b6000610ff7836106fd565b90508073ffffffffffffffffffffffffffffffffffffffff168473ffffffffffffffffffffffffffffffffffffffff16148061106657508373ffffffffffffffffffffffffffffffffffffffff1661104e846104e0565b73ffffffffffffffffffffffffffffffffffffffff16145b8061107757506110768185610d51565b5b91505092915050565b8273ffffffffffffffffffffffffffffffffffffffff166110a0826106fd565b73ffffffffffffffffffffffffffffffffffffffff16146110f6576040517f08c379a00000000000000000000000000000000000000000000000000000000081526004016110ed9061213d565b60405180910390fd5b600073ffffffffffffffffffffffffffffffffffffffff168273ffffffffffffffffffffffffffffffffffffffff161415611166576040517f08c379a000000000000000000000000000000000000000000000000000000000815260040161115d9061201d565b60405180910390fd5b6111718383836114d7565b61117c600082610ee9565b6001600360008573ffffffffffffffffffffffffffffffffffffffff1673ffffffffffffffffffffffffffffffffffffffff16815260200190815260200160002060008282546111cc9190612318565b925050819055506001600360008473ffffffffffffffffffffffffffffffffffffffff1673ffffffffffffffffffffffffffffffffffffffff16815260200190815260200160002060008282546112239190612291565b92505081905550816002600083815260200190815260200160002060006101000a81548173ffffffffffffffffffffffffffffffffffffffff021916908373ffffffffffffffffffffffffffffffffffffffff160217905550808273ffffffffffffffffffffffffffffffffffffffff168473ffffffffffffffffffffffffffffffffffffffff167fddf252ad1be2c89b69c2b068fc378daa952ba7f163c4a11628f55a4df523b3ef60405160405180910390a4505050565b6112f68282604051806020016040528060008152506114dc565b5050565b611305848484611080565b61131184848484611537565b611350576040517f08c379a000000000000000000000000000000000000000000000000000000000815260040161134790611fbd565b60405180910390fd5b50505050565b6060604051806060016040528060278152602001612acd60279139905090565b606060008214156113be576040518060400160405280600181526020017f300000000000000000000000000000000000000000000000000000000000000081525090506114d2565b600082905060005b600082146113f05780806113d990612465565b915050600a826113e991906122e7565b91506113c6565b60008167ffffffffffffffff81111561140c5761140b61259b565b5b6040519080825280601f01601f19166020018201604052801561143e5781602001600182028036833780820191505090505b5090505b600085146114cb576001826114579190612318565b9150600a8561146691906124ae565b60306114729190612291565b60f81b8183815181106114885761148761256c565b5b60200101907effffffffffffffffffffffffffffffffffffffffffffffffffffffffffffff1916908160001a905350600a856114c491906122e7565b9450611442565b8093505050505b919050565b505050565b6114e683836116ce565b6114f36000848484611537565b611532576040517f08c379a000000000000000000000000000000000000000000000000000000000815260040161152990611fbd565b60405180910390fd5b505050565b60006115588473ffffffffffffffffffffffffffffffffffffffff1661189c565b156116c1578373ffffffffffffffffffffffffffffffffffffffff1663150b7a02611581610ee1565b8786866040518563ffffffff1660e01b81526004016115a39493929190611f34565b602060405180830381600087803b1580156115bd57600080fd5b505af19250505080156115ee57506040513d601f19601f820116820180604052508101906115eb9190611b78565b60015b611671573d806000811461161e576040519150601f19603f3d011682016040523d82523d6000602084013e611623565b606091505b50600081511415611669576040517f08c379a000000000000000000000000000000000000000000000000000000000815260040161166090611fbd565b60405180910390fd5b805181602001fd5b63150b7a0260e01b7bffffffffffffffffffffffffffffffffffffffffffffffffffffffff1916817bffffffffffffffffffffffffffffffffffffffffffffffffffffffff1916149150506116c6565b600190505b949350505050565b600073ffffffffffffffffffffffffffffffffffffffff168273ffffffffffffffffffffffffffffffffffffffff16141561173e576040517f08c379a0000000000000000000000000000000000000000000000000000000008152600401611735906120fd565b60405180910390fd5b61174781610e75565b15611787576040517f08c379a000000000000000000000000000000000000000000000000000000000815260040161177e90611fdd565b60405180910390fd5b611793600083836114d7565b6001600360008473ffffffffffffffffffffffffffffffffffffffff1673ffffffffffffffffffffffffffffffffffffffff16815260200190815260200160002060008282546117e39190612291565b92505081905550816002600083815260200190815260200160002060006101000a81548173ffffffffffffffffffffffffffffffffffffffff021916908373ffffffffffffffffffffffffffffffffffffffff160217905550808273ffffffffffffffffffffffffffffffffffffffff16600073ffffffffffffffffffffffffffffffffffffffff167fddf252ad1be2c89b69c2b068fc378daa952ba7f163c4a11628f55a4df523b3ef60405160405180910390a45050565b600080823b905060008111915050919050565b60006118c26118bd8461221d565b6121f8565b9050828152602081018484840111156118de576118dd6125cf565b5b6118e98482856123c0565b509392505050565b60008135905061190081612a70565b92915050565b60008135905061191581612a87565b92915050565b60008135905061192a81612a9e565b92915050565b60008151905061193f81612a9e565b92915050565b600082601f83011261195a576119596125ca565b5b813561196a8482602086016118af565b91505092915050565b60008135905061198281612ab5565b92915050565b60006020828403121561199e5761199d6125d9565b5b60006119ac848285016118f1565b91505092915050565b600080604083850312156119cc576119cb6125d9565b5b60006119da858286016118f1565b92505060206119eb858286016118f1565b9150509250929050565b600080600060608486031215611a0e57611a0d6125d9565b5b6000611a1c868287016118f1565b9350506020611a2d868287016118f1565b9250506040611a3e86828701611973565b9150509250925092565b60008060008060808587031215611a6257611a616125d9565b5b6000611a70878288016118f1565b9450506020611a81878288016118f1565b9350506040611a9287828801611973565b925050606085013567ffffffffffffffff811115611ab357611ab26125d4565b5b611abf87828801611945565b91505092959194509250565b60008060408385031215611ae257611ae16125d9565b5b6000611af0858286016118f1565b9250506020611b0185828601611906565b9150509250929050565b60008060408385031215611b2257611b216125d9565b5b6000611b30858286016118f1565b9250506020611b4185828601611973565b9150509250929050565b600060208284031215611b6157611b606125d9565b5b6000611b6f8482850161191b565b91505092915050565b600060208284031215611b8e57611b8d6125d9565b5b6000611b9c84828501611930565b91505092915050565b600060208284031215611bbb57611bba6125d9565b5b6000611bc984828501611973565b91505092915050565b611bdb8161234c565b82525050565b611bea8161235e565b82525050565b6000611bfb8261224e565b611c058185612264565b9350611c158185602086016123cf565b611c1e816125de565b840191505092915050565b6000611c3482612259565b611c3e8185612275565b9350611c4e8185602086016123cf565b611c57816125de565b840191505092915050565b6000611c6d82612259565b611c778185612286565b9350611c878185602086016123cf565b80840191505092915050565b6000611ca0603283612275565b9150611cab826125ef565b604082019050919050565b6000611cc3601c83612275565b9150611cce8261263e565b602082019050919050565b6000611ce6602c83612275565b9150611cf182612667565b604082019050919050565b6000611d09602483612275565b9150611d14826126b6565b604082019050919050565b6000611d2c601983612275565b9150611d3782612705565b602082019050919050565b6000611d4f600a83612275565b9150611d5a8261272e565b602082019050919050565b6000611d72602c83612275565b9150611d7d82612757565b604082019050919050565b6000611d95603883612275565b9150611da0826127a6565b604082019050919050565b6000611db8602a83612275565b9150611dc3826127f5565b604082019050919050565b6000611ddb602983612275565b9150611de682612844565b604082019050919050565b6000611dfe602083612275565b9150611e0982612893565b602082019050919050565b6000611e21602c83612275565b9150611e2c826128bc565b604082019050919050565b6000611e44602983612275565b9150611e4f8261290b565b604082019050919050565b6000611e67602f83612275565b9150611e728261295a565b604082019050919050565b6000611e8a602183612275565b9150611e95826129a9565b604082019050919050565b6000611ead603183612275565b9150611eb8826129f8565b604082019050919050565b6000611ed0601083612275565b9150611edb82612a47565b602082019050919050565b611eef816123b6565b82525050565b6000611f018285611c62565b9150611f0d8284611c62565b91508190509392505050565b6000602082019050611f2e6000830184611bd2565b92915050565b6000608082019050611f496000830187611bd2565b611f566020830186611bd2565b611f636040830185611ee6565b8181036060830152611f758184611bf0565b905095945050505050565b6000602082019050611f956000830184611be1565b92915050565b60006020820190508181036000830152611fb58184611c29565b905092915050565b60006020820190508181036000830152611fd681611c93565b9050919050565b60006020820190508181036000830152611ff681611cb6565b9050919050565b6000602082019050818103600083015261201681611cd9565b9050919050565b6000602082019050818103600083015261203681611cfc565b9050919050565b6000602082019050818103600083015261205681611d1f565b9050919050565b6000602082019050818103600083015261207681611d42565b9050919050565b6000602082019050818103600083015261209681611d65565b9050919050565b600060208201905081810360008301526120b681611d88565b9050919050565b600060208201905081810360008301526120d681611dab565b9050919050565b600060208201905081810360008301526120f681611dce565b9050919050565b6000602082019050818103600083015261211681611df1565b9050919050565b6000602082019050818103600083015261213681611e14565b9050919050565b6000602082019050818103600083015261215681611e37565b9050919050565b6000602082019050818103600083015261217681611e5a565b9050919050565b6000602082019050818103600083015261219681611e7d565b9050919050565b600060208201905081810360008301526121b681611ea0565b9050919050565b600060208201905081810360008301526121d681611ec3565b9050919050565b60006020820190506121f26000830184611ee6565b92915050565b6000612202612213565b905061220e8282612434565b919050565b6000604051905090565b600067ffffffffffffffff8211156122385761223761259b565b5b612241826125de565b9050602081019050919050565b600081519050919050565b600081519050919050565b600082825260208201905092915050565b600082825260208201905092915050565b600081905092915050565b600061229c826123b6565b91506122a7836123b6565b9250827fffffffffffffffffffffffffffffffffffffffffffffffffffffffffffffffff038211156122dc576122db6124df565b5b828201905092915050565b60006122f2826123b6565b91506122fd836123b6565b92508261230d5761230c61250e565b5b828204905092915050565b6000612323826123b6565b915061232e836123b6565b925082821015612341576123406124df565b5b828203905092915050565b600061235782612396565b9050919050565b60008115159050919050565b60007fffffffff0000000000000000000000000000000000000000000000000000000082169050919050565b600073ffffffffffffffffffffffffffffffffffffffff82169050919050565b6000819050919050565b82818337600083830152505050565b60005b838110156123ed5780820151818401526020810190506123d2565b838111156123fc576000848401525b50505050565b6000600282049050600182168061241a57607f821691505b6020821081141561242e5761242d61253d565b5b50919050565b61243d826125de565b810181811067ffffffffffffffff8211171561245c5761245b61259b565b5b80604052505050565b6000612470826123b6565b91507fffffffffffffffffffffffffffffffffffffffffffffffffffffffffffffffff8214156124a3576124a26124df565b5b600182019050919050565b60006124b9826123b6565b91506124c4836123b6565b9250826124d4576124d361250e565b5b828206905092915050565b7f4e487b7100000000000000000000000000000000000000000000000000000000600052601160045260246000fd5b7f4e487b7100000000000000000000000000000000000000000000000000000000600052601260045260246000fd5b7f4e487b7100000000000000000000000000000000000000000000000000000000600052602260045260246000fd5b7f4e487b7100000000000000000000000000000000000000000000000000000000600052603260045260246000fd5b7f4e487b7100000000000000000000000000000000000000000000000000000000600052604160045260246000fd5b600080fd5b600080fd5b600080fd5b600080fd5b6000601f19601f8301169050919050565b7f4552433732313a207472616e7366657220746f206e6f6e20455243373231526560008201527f63656976657220696d706c656d656e7465720000000000000000000000000000602082015250565b7f4552433732313a20746f6b656e20616c7265616479206d696e74656400000000600082015250565b7f636f6e7472616374206e6f7420617070726f76656420746f20706572666f726d60008201527f207472616e73616374696f6e0000000000000000000000000000000000000000602082015250565b7f4552433732313a207472616e7366657220746f20746865207a65726f2061646460008201527f7265737300000000000000000000000000000000000000000000000000000000602082015250565b7f4552433732313a20617070726f766520746f2063616c6c657200000000000000600082015250565b7f6f6e6c792061646d696e00000000000000000000000000000000000000000000600082015250565b7f4552433732313a206f70657261746f7220717565727920666f72206e6f6e657860008201527f697374656e7420746f6b656e0000000000000000000000000000000000000000602082015250565b7f4552433732313a20617070726f76652063616c6c6572206973206e6f74206f7760008201527f6e6572206e6f7220617070726f76656420666f7220616c6c0000000000000000602082015250565b7f4552433732313a2062616c616e636520717565727920666f7220746865207a6560008201527f726f206164647265737300000000000000000000000000000000000000000000602082015250565b7f4552433732313a206f776e657220717565727920666f72206e6f6e657869737460008201527f656e7420746f6b656e0000000000000000000000000000000000000000000000602082015250565b7f4552433732313a206d696e7420746f20746865207a65726f2061646472657373600082015250565b7f4552433732313a20617070726f76656420717565727920666f72206e6f6e657860008201527f697374656e7420746f6b656e0000000000000000000000000000000000000000602082015250565b7f4552433732313a207472616e73666572206f6620746f6b656e2074686174206960008201527f73206e6f74206f776e0000000000000000000000000000000000000000000000602082015250565b7f4552433732314d657461646174613a2055524920717565727920666f72206e6f60008201527f6e6578697374656e7420746f6b656e0000000000000000000000000000000000602082015250565b7f4552433732313a20617070726f76616c20746f2063757272656e74206f776e6560008201527f7200000000000000000000000000000000000000000000000000000000000000602082015250565b7f4552433732313a207472616e736665722063616c6c6572206973206e6f74206f60008201527f776e6572206e6f7220617070726f766564000000000000000000000000000000602082015250565b7f73656e64696e6720746f206f776e657200000000000000000000000000000000600082015250565b612a798161234c565b8114612a8457600080fd5b50565b612a908161235e565b8114612a9b57600080fd5b50565b612aa78161236a565b8114612ab257600080fd5b50565b612abe816123b6565b8114612ac957600080fd5b5056fe68747470733a2f2f6c6f7373792d6e66742d7365727665722e6865726f6b756170702e636f6d2fa264697066735822122087b4d672a27b84dd4af96096b7f0367fd92f38498b7390f812de129469a379f964736f6c63430008060033",
  "linkReferences": {},
  "deployedLinkReferences": {}
}